{
  "contractName": "AdAuction",
  "abi": [
    {
      "anonymous": false,
      "inputs": [
        {
          "indexed": false,
          "internalType": "address",
          "name": "from",
          "type": "address"
        },
        {
          "indexed": false,
          "internalType": "uint256",
          "name": "amount",
          "type": "uint256"
        }
      ],
      "name": "NewHigherBid",
      "type": "event"
    },
    {
      "inputs": [],
      "name": "bidIndex",
      "outputs": [
        {
          "internalType": "uint256",
          "name": "",
          "type": "uint256"
        }
      ],
      "stateMutability": "view",
      "type": "function",
      "constant": true
    },
    {
      "inputs": [
        {
          "internalType": "uint256",
          "name": "",
          "type": "uint256"
        }
      ],
      "name": "bidLog",
      "outputs": [
        {
          "internalType": "address",
          "name": "bidder",
          "type": "address"
        },
        {
          "internalType": "uint256",
          "name": "amount",
          "type": "uint256"
        }
      ],
      "stateMutability": "view",
      "type": "function",
      "constant": true
    },
    {
      "inputs": [],
      "name": "lastBidder",
      "outputs": [
        {
          "internalType": "address",
          "name": "bidder",
          "type": "address"
        },
        {
          "internalType": "uint256",
          "name": "amount",
          "type": "uint256"
        }
      ],
      "stateMutability": "view",
      "type": "function",
      "constant": true
    },
    {
      "inputs": [
        {
          "internalType": "address",
          "name": "_from",
          "type": "address"
        },
        {
          "internalType": "uint256",
          "name": "_amount",
          "type": "uint256"
        }
      ],
      "name": "bid",
      "outputs": [],
      "stateMutability": "payable",
      "type": "function",
      "payable": true
    }
  ],
  "bytecode": "0x608060405234801561001057600080fd5b50610590806100206000396000f3fe60806040526004361061003f5760003560e01c806359d667a51461004457806361f04c10146100605780638547af301461008b578063c3c941fc146100b7575b600080fd5b61005e60048036038101906100599190610327565b6100f5565b005b34801561006c57600080fd5b50610075610281565b604051610082919061041e565b60405180910390f35b34801561009757600080fd5b506100a0610287565b6040516100ae9291906103d5565b60405180910390f35b3480156100c357600080fd5b506100de60048036038101906100d99190610367565b6102b9565b6040516100ec9291906103d5565b60405180910390f35b600060010154811161013c576040517f08c379a0000000000000000000000000000000000000000000000000000000008152600401610133906103fe565b60405180910390fd5b600060405180604001604052808473ffffffffffffffffffffffffffffffffffffffff1681526020018381525090508060036000600254815260200190815260200160002060008201518160000160006101000a81548173ffffffffffffffffffffffffffffffffffffffff021916908373ffffffffffffffffffffffffffffffffffffffff16021790555060208201518160010155905050806000808201518160000160006101000a81548173ffffffffffffffffffffffffffffffffffffffff021916908373ffffffffffffffffffffffffffffffffffffffff160217905550602082015181600101559050506002600081548092919061023e90610486565b91905055507f980b2569981a7b660f1cc571ae8258db56207834969f13aad34185e3e3c37bb383836040516102749291906103d5565b60405180910390a1505050565b60025481565b60008060000160009054906101000a900473ffffffffffffffffffffffffffffffffffffffff16908060010154905082565b60036020528060005260406000206000915090508060000160009054906101000a900473ffffffffffffffffffffffffffffffffffffffff16908060010154905082565b60008135905061030c8161052c565b92915050565b60008135905061032181610543565b92915050565b6000806040838503121561033e5761033d6104fe565b5b600061034c858286016102fd565b925050602061035d85828601610312565b9150509250929050565b60006020828403121561037d5761037c6104fe565b5b600061038b84828501610312565b91505092915050565b61039d8161044a565b82525050565b60006103b0601b83610439565b91506103bb82610503565b602082019050919050565b6103cf8161047c565b82525050565b60006040820190506103ea6000830185610394565b6103f760208301846103c6565b9392505050565b60006020820190508181036000830152610417816103a3565b9050919050565b600060208201905061043360008301846103c6565b92915050565b600082825260208201905092915050565b60006104558261045c565b9050919050565b600073ffffffffffffffffffffffffffffffffffffffff82169050919050565b6000819050919050565b60006104918261047c565b91507fffffffffffffffffffffffffffffffffffffffffffffffffffffffffffffffff8214156104c4576104c36104cf565b5b600182019050919050565b7f4e487b7100000000000000000000000000000000000000000000000000000000600052601160045260246000fd5b600080fd5b7f596f75206d757374206d616b6520612068696768657220626964210000000000600082015250565b6105358161044a565b811461054057600080fd5b50565b61054c8161047c565b811461055757600080fd5b5056fea2646970667358221220edac9c2d2573a84cada85bcb047a88f3290516c38630cb684422c22ac3078c9664736f6c63430008060033",
  "immutableReferences": {},
  "source": "// SPDX-License-Identifier: MIT\npragma solidity 0.8.6;\n\n\ncontract AdAuction {\n    \n    struct Bidder {\n        address bidder;\n        uint amount;\n    }\n    \n    Bidder public lastBidder;\n    uint public bidIndex;\n   \n    mapping(uint => Bidder) public bidLog;\n    \n    event NewHigherBid(address from, uint amount);\n    \n    function bid(address _from, uint _amount) external payable {\n        require(_amount > lastBidder.amount, \"You must make a higher bid!\");\n        Bidder memory b = Bidder(_from, _amount);\n        bidLog[bidIndex] = b;\n        lastBidder = b;\n        bidIndex ++;\n        emit NewHigherBid(_from, _amount);\n    }\n}",
  "sourcePath": "/Users/vasilis/Projects/Solidity/AdAuction/contracts/AdAuction.sol",
  "compiler": {
    "name": "solc",
    "version": "0.8.6+commit.11564f7e.Emscripten.clang"
  },
  "schemaVersion": "3.4.1",
  "updatedAt": "2021-07-05T16:28:43.980Z",
  "networkType": "ethereum",
  "devdoc": {
    "kind": "dev",
    "methods": {},
    "version": 1
  },
  "userdoc": {
    "kind": "user",
    "methods": {},
    "version": 1
  }
}