{
  "contractName": "AdAuction",
  "abi": [
    {
      "inputs": [],
      "stateMutability": "nonpayable",
      "type": "constructor"
    },
    {
      "anonymous": false,
      "inputs": [
        {
          "indexed": false,
          "internalType": "address",
          "name": "from",
          "type": "address"
        },
        {
          "indexed": false,
          "internalType": "uint256",
          "name": "amount",
          "type": "uint256"
        }
      ],
      "name": "NewHigherBid",
      "type": "event"
    },
    {
      "anonymous": false,
      "inputs": [
        {
          "indexed": false,
          "internalType": "string",
          "name": "imageHash",
          "type": "string"
        },
        {
          "indexed": false,
          "internalType": "string",
          "name": "title",
          "type": "string"
        }
      ],
      "name": "NewWinningData",
      "type": "event"
    },
    {
      "inputs": [],
      "name": "bidIndex",
      "outputs": [
        {
          "internalType": "uint256",
          "name": "",
          "type": "uint256"
        }
      ],
      "stateMutability": "view",
      "type": "function",
      "constant": true
    },
    {
      "inputs": [
        {
          "internalType": "uint256",
          "name": "",
          "type": "uint256"
        }
      ],
      "name": "bidLog",
      "outputs": [
        {
          "internalType": "address",
          "name": "bidder",
          "type": "address"
        },
        {
          "internalType": "uint256",
          "name": "amount",
          "type": "uint256"
        }
      ],
      "stateMutability": "view",
      "type": "function",
      "constant": true
    },
    {
      "inputs": [],
      "name": "lastBidder",
      "outputs": [
        {
          "internalType": "address",
          "name": "bidder",
          "type": "address"
        },
        {
          "internalType": "uint256",
          "name": "amount",
          "type": "uint256"
        }
      ],
      "stateMutability": "view",
      "type": "function",
      "constant": true
    },
    {
      "inputs": [],
      "name": "owner",
      "outputs": [
        {
          "internalType": "address",
          "name": "",
          "type": "address"
        }
      ],
      "stateMutability": "view",
      "type": "function",
      "constant": true
    },
    {
      "inputs": [],
      "name": "winnerData",
      "outputs": [
        {
          "internalType": "string",
          "name": "imageHash",
          "type": "string"
        },
        {
          "internalType": "string",
          "name": "title",
          "type": "string"
        }
      ],
      "stateMutability": "view",
      "type": "function",
      "constant": true
    },
    {
      "inputs": [
        {
          "internalType": "address",
          "name": "_from",
          "type": "address"
        },
        {
          "internalType": "uint256",
          "name": "_amount",
          "type": "uint256"
        }
      ],
      "name": "bid",
      "outputs": [],
      "stateMutability": "payable",
      "type": "function",
      "payable": true
    },
    {
      "inputs": [
        {
          "internalType": "address",
          "name": "_from",
          "type": "address"
        },
        {
          "internalType": "string",
          "name": "_image",
          "type": "string"
        },
        {
          "internalType": "string",
          "name": "_title",
          "type": "string"
        }
      ],
      "name": "setWinnerData",
      "outputs": [],
      "stateMutability": "nonpayable",
      "type": "function"
    }
  ],
  "bytecode": "0x608060405234801561001057600080fd5b5033600560006101000a81548173ffffffffffffffffffffffffffffffffffffffff021916908373ffffffffffffffffffffffffffffffffffffffff160217905550610ccc806100616000396000f3fe6080604052600436106100705760003560e01c80636f7669981161004e5780636f766998146100e85780638547af30146101115780638da5cb5b1461013d578063c3c941fc1461016857610070565b80631baf523b1461007557806359d667a5146100a157806361f04c10146100bd575b600080fd5b34801561008157600080fd5b5061008a6101a6565b604051610098929190610936565b60405180910390f35b6100bb60048036038101906100b691906107e8565b6102c8565b005b3480156100c957600080fd5b506100d2610454565b6040516100df91906109ad565b60405180910390f35b3480156100f457600080fd5b5061010f600480360381019061010a919061075d565b61045a565b005b34801561011d57600080fd5b50610126610584565b60405161013492919061090d565b60405180910390f35b34801561014957600080fd5b506101526105b6565b60405161015f91906108f2565b60405180910390f35b34801561017457600080fd5b5061018f600480360381019061018a9190610828565b6105dc565b60405161019d92919061090d565b60405180910390f35b60038060000180546101b790610ab8565b80601f01602080910402602001604051908101604052809291908181526020018280546101e390610ab8565b80156102305780601f1061020557610100808354040283529160200191610230565b820191906000526020600020905b81548152906001019060200180831161021357829003601f168201915b50505050509080600101805461024590610ab8565b80601f016020809104026020016040519081016040528092919081815260200182805461027190610ab8565b80156102be5780601f10610293576101008083540402835291602001916102be565b820191906000526020600020905b8154815290600101906020018083116102a157829003601f168201915b5050505050905082565b600060010154811161030f576040517f08c379a00000000000000000000000000000000000000000000000000000000081526004016103069061098d565b60405180910390fd5b600060405180604001604052808473ffffffffffffffffffffffffffffffffffffffff1681526020018381525090508060066000600254815260200190815260200160002060008201518160000160006101000a81548173ffffffffffffffffffffffffffffffffffffffff021916908373ffffffffffffffffffffffffffffffffffffffff16021790555060208201518160010155905050806000808201518160000160006101000a81548173ffffffffffffffffffffffffffffffffffffffff021916908373ffffffffffffffffffffffffffffffffffffffff160217905550602082015181600101559050506002600081548092919061041190610b1b565b91905055507f980b2569981a7b660f1cc571ae8258db56207834969f13aad34185e3e3c37bb3838360405161044792919061090d565b60405180910390a1505050565b60025481565b6000800160009054906101000a900473ffffffffffffffffffffffffffffffffffffffff1673ffffffffffffffffffffffffffffffffffffffff168373ffffffffffffffffffffffffffffffffffffffff16146104ec576040517f08c379a00000000000000000000000000000000000000000000000000000000081526004016104e39061096d565b60405180910390fd5b600060405180604001604052808481526020018381525090508060036000820151816000019080519060200190610524929190610620565b506020820151816001019080519060200190610541929190610620565b509050507f544e446e25a147369132d4bbf598f238cfef6449ebb3b5336909d60abbda81db8383604051610576929190610936565b60405180910390a150505050565b60008060000160009054906101000a900473ffffffffffffffffffffffffffffffffffffffff16908060010154905082565b600560009054906101000a900473ffffffffffffffffffffffffffffffffffffffff1681565b60066020528060005260406000206000915090508060000160009054906101000a900473ffffffffffffffffffffffffffffffffffffffff16908060010154905082565b82805461062c90610ab8565b90600052602060002090601f01602090048101928261064e5760008555610695565b82601f1061066757805160ff1916838001178555610695565b82800160010185558215610695579182015b82811115610694578251825591602001919060010190610679565b5b5090506106a291906106a6565b5090565b5b808211156106bf5760008160009055506001016106a7565b5090565b60006106d66106d1846109ed565b6109c8565b9050828152602081018484840111156106f2576106f1610bf6565b5b6106fd848285610a76565b509392505050565b60008135905061071481610c68565b92915050565b600082601f83011261072f5761072e610bf1565b5b813561073f8482602086016106c3565b91505092915050565b60008135905061075781610c7f565b92915050565b60008060006060848603121561077657610775610c00565b5b600061078486828701610705565b935050602084013567ffffffffffffffff8111156107a5576107a4610bfb565b5b6107b18682870161071a565b925050604084013567ffffffffffffffff8111156107d2576107d1610bfb565b5b6107de8682870161071a565b9150509250925092565b600080604083850312156107ff576107fe610c00565b5b600061080d85828601610705565b925050602061081e85828601610748565b9150509250929050565b60006020828403121561083e5761083d610c00565b5b600061084c84828501610748565b91505092915050565b61085e81610a3a565b82525050565b600061086f82610a1e565b6108798185610a29565b9350610889818560208601610a85565b61089281610c05565b840191505092915050565b60006108aa601583610a29565b91506108b582610c16565b602082019050919050565b60006108cd601b83610a29565b91506108d882610c3f565b602082019050919050565b6108ec81610a6c565b82525050565b60006020820190506109076000830184610855565b92915050565b60006040820190506109226000830185610855565b61092f60208301846108e3565b9392505050565b600060408201905081810360008301526109508185610864565b905081810360208301526109648184610864565b90509392505050565b600060208201905081810360008301526109868161089d565b9050919050565b600060208201905081810360008301526109a6816108c0565b9050919050565b60006020820190506109c260008301846108e3565b92915050565b60006109d26109e3565b90506109de8282610aea565b919050565b6000604051905090565b600067ffffffffffffffff821115610a0857610a07610bc2565b5b610a1182610c05565b9050602081019050919050565b600081519050919050565b600082825260208201905092915050565b6000610a4582610a4c565b9050919050565b600073ffffffffffffffffffffffffffffffffffffffff82169050919050565b6000819050919050565b82818337600083830152505050565b60005b83811015610aa3578082015181840152602081019050610a88565b83811115610ab2576000848401525b50505050565b60006002820490506001821680610ad057607f821691505b60208210811415610ae457610ae3610b93565b5b50919050565b610af382610c05565b810181811067ffffffffffffffff82111715610b1257610b11610bc2565b5b80604052505050565b6000610b2682610a6c565b91507fffffffffffffffffffffffffffffffffffffffffffffffffffffffffffffffff821415610b5957610b58610b64565b5b600182019050919050565b7f4e487b7100000000000000000000000000000000000000000000000000000000600052601160045260246000fd5b7f4e487b7100000000000000000000000000000000000000000000000000000000600052602260045260246000fd5b7f4e487b7100000000000000000000000000000000000000000000000000000000600052604160045260246000fd5b600080fd5b600080fd5b600080fd5b600080fd5b6000601f19601f8301169050919050565b7f596f7520617265206e6f7420746865206f776e65720000000000000000000000600082015250565b7f596f75206d757374206d616b6520612068696768657220626964210000000000600082015250565b610c7181610a3a565b8114610c7c57600080fd5b50565b610c8881610a6c565b8114610c9357600080fd5b5056fea264697066735822122021224be3f2e4115fd933e0dd35d22b3572e41ceee53db329597b9e43c013dc7664736f6c63430008060033",
  "immutableReferences": {},
  "source": "// SPDX-License-Identifier: MIT\npragma solidity 0.8.6;\n\ncontract AdAuction {\n    \n    struct Bidder {\n        address bidder;\n        uint amount;\n    }\n\n    struct WinnerData {\n        string imageHash;\n        string title;\n    }\n    \n    Bidder public lastBidder;\n    uint public bidIndex;\n    WinnerData public winnerData;\n\n    address public owner;\n   \n    mapping(uint => Bidder) public bidLog;\n    \n    event NewHigherBid(address from, uint amount);\n    event NewWinningData( string imageHash, string title);\n\n    constructor() {\n        owner = msg.sender;\n    }\n    \n    function bid(address _from, uint _amount) external payable {\n        require(_amount > lastBidder.amount, \"You must make a higher bid!\");\n        Bidder memory b = Bidder(_from, _amount);\n        bidLog[bidIndex] = b;\n        lastBidder = b;\n        bidIndex ++;\n        emit NewHigherBid(_from, _amount);\n    }\n\n\n    function setWinnerData(address _from, string memory _image, string memory _title) public {\n        require(_from == lastBidder.bidder, \"You are not the owner\");\n        WinnerData memory wd = WinnerData(_image, _title);\n        winnerData = wd;\n        emit NewWinningData(_image, _title);\n    }\n}",
  "sourcePath": "/Users/vasilis/Projects/Solidity/AdAuction/contracts/AdAuction.sol",
  "compiler": {
    "name": "solc",
    "version": "0.8.6+commit.11564f7e.Emscripten.clang"
  },
  "schemaVersion": "3.4.1",
  "updatedAt": "2021-07-06T17:05:07.495Z",
  "networkType": "ethereum",
  "devdoc": {
    "kind": "dev",
    "methods": {},
    "version": 1
  },
  "userdoc": {
    "kind": "user",
    "methods": {},
    "version": 1
  }
}