{
    "contractName": "EventExample",
    "abi": [
        {
            "inputs": [],
            "stateMutability": "nonpayable",
            "type": "constructor"
        },
        {
            "anonymous": false,
            "inputs": [
                {
                    "indexed": false,
                    "internalType": "address",
                    "name": "_from",
                    "type": "address"
                },
                {
                    "indexed": false,
                    "internalType": "address",
                    "name": "_to",
                    "type": "address"
                },
                {
                    "indexed": false,
                    "internalType": "uint256",
                    "name": "_amount",
                    "type": "uint256"
                }
            ],
            "name": "TokenSend",
            "type": "event"
        },
        {
            "inputs": [
                {
                    "internalType": "address",
                    "name": "_to",
                    "type": "address"
                },
                {
                    "internalType": "uint256",
                    "name": "_amount",
                    "type": "uint256"
                }
            ],
            "name": "sendToken",
            "outputs": [
                {
                    "internalType": "bool",
                    "name": "",
                    "type": "bool"
                }
            ],
            "stateMutability": "nonpayable",
            "type": "function"
        }
    ],
    "bytecode": "608060405234801561001057600080fd5b50336000908152602081905260409020606490556102a7806100336000396000f3fe608060405234801561001057600080fd5b506004361061002b5760003560e01c8063412664ae14610030575b600080fd5b61004361003e36600461019c565b610059565b60405161005091906101f6565b60405180910390f35b336000908152602081905260408120548211156100915760405162461bcd60e51b815260040161008890610201565b60405180910390fd5b6001600160a01b0383166000908152602081905260409020546100b4838261022c565b10156100d057634e487b7160e01b600052600160045260246000fd5b336000908152602081905260409020546100ea8382610244565b111561010657634e487b7160e01b600052600160045260246000fd5b3360009081526020819052604081208054849290610125908490610244565b90915550506001600160a01b0383166000908152602081905260408120805484929061015290849061022c565b90915550506040517f010793bff862e09b4e26851caa636f0c6ca8c4065c8e319939d71ddca7cd1d169061018b903390869086906101d2565b60405180910390a150600192915050565b600080604083850312156101ae578182fd5b82356001600160a01b03811681146101c4578283fd5b946020939093013593505050565b6001600160a01b039384168152919092166020820152604081019190915260600190565b901515815260200190565b6020808252601190820152704e6f7420656e6f75676820746f6b656e7360781b604082015260600190565b6000821982111561023f5761023f61025b565b500190565b6000828210156102565761025661025b565b500390565b634e487b7160e01b600052601160045260246000fdfea2646970667358221220f9cb9a5778d5b8b3425483e88a34c194d82ebc97b65fb70638a9c5e268aa47f764736f6c63430008010033",
    "sourcePath": "/Users/vasilis/Projects/Solidity/udemy/contracts/09_Events.sol",
    "compiler": {
        "name": "solc",
        "version": "0.8.1+commit.df193b15"
    },
    "functionHashes": {
        "sendToken(address,uint256)": "412664ae"
    },
    "gasEstimates": {
        "creation": {
            "codeDepositCost": "135800",
            "executionCost": "20263",
            "totalCost": "156063"
        },
        "external": {
            "sendToken(address,uint256)": "infinite"
        }
    }
}