{
    "contractName": "Exeptions",
    "abi": [
        {
            "inputs": [
                {
                    "internalType": "address",
                    "name": "",
                    "type": "address"
                }
            ],
            "name": "balanceReceived",
            "outputs": [
                {
                    "internalType": "uint64",
                    "name": "",
                    "type": "uint64"
                }
            ],
            "stateMutability": "view",
            "type": "function"
        },
        {
            "inputs": [],
            "name": "receiveFunds",
            "outputs": [],
            "stateMutability": "payable",
            "type": "function"
        },
        {
            "inputs": [
                {
                    "internalType": "address payable",
                    "name": "_to",
                    "type": "address"
                },
                {
                    "internalType": "uint64",
                    "name": "_amount",
                    "type": "uint64"
                }
            ],
            "name": "withdrawFunds",
            "outputs": [],
            "stateMutability": "nonpayable",
            "type": "function"
        }
    ],
    "bytecode": "608060405234801561001057600080fd5b506103d7806100206000396000f3fe6080604052600436106100335760003560e01c80625c33e114610038578063d18a42e114610042578063faf7fc0614610078575b600080fd5b610040610098565b005b34801561004e57600080fd5b5061006261005d36600461027e565b61012e565b60405161006f919061030c565b60405180910390f35b34801561008457600080fd5b506100406100933660046102a1565b610149565b336000908152602081905260409020546001600160401b03166100bb3482610320565b6001600160401b031610156100e057634e487b7160e01b600052600160045260246000fd5b33600090815260208190526040812080543492906101089084906001600160401b0316610320565b92506101000a8154816001600160401b0302191690836001600160401b03160217905550565b6000602081905290815260409020546001600160401b031681565b336000908152602081905260409020546001600160401b03908116908216111561018e5760405162461bcd60e51b8152600401610185906102e4565b60405180910390fd5b336000908152602081905260409020546101b29082906001600160401b031661034b565b336000908152602081905260409020546001600160401b03918216911610156101eb57634e487b7160e01b600052600160045260246000fd5b33600090815260208190526040812080548392906102139084906001600160401b031661034b565b92506101000a8154816001600160401b0302191690836001600160401b03160217905550816001600160a01b03166108fc826001600160401b03169081150290604051600060405180830381858888f19350505050158015610279573d6000803e3d6000fd5b505050565b60006020828403121561028f578081fd5b813561029a81610389565b9392505050565b600080604083850312156102b3578081fd5b82356102be81610389565b915060208301356001600160401b03811681146102d9578182fd5b809150509250929050565b6020808252600e908201526d09cdee840cadcdeeaced0408aa8960931b604082015260600190565b6001600160401b0391909116815260200190565b60006001600160401b0380831681851680830382111561034257610342610373565b01949350505050565b60006001600160401b038381169083168181101561036b5761036b610373565b039392505050565b634e487b7160e01b600052601160045260246000fd5b6001600160a01b038116811461039e57600080fd5b5056fea2646970667358221220149b077c98a44f056793968a1d8698b8b3df5a27f894766bbed471fe9816df4964736f6c63430008010033",
    "sourcePath": "/Users/vasilis/Projects/Solidity/udemy/contracts/06_Excemptions.sol",
    "compiler": {
        "name": "solc",
        "version": "0.8.1+commit.df193b15"
    },
    "functionHashes": {
        "balanceReceived(address)": "d18a42e1",
        "receiveFunds()": "005c33e1",
        "withdrawFunds(address,uint64)": "faf7fc06"
    },
    "gasEstimates": {
        "creation": {
            "codeDepositCost": "196600",
            "executionCost": "238",
            "totalCost": "196838"
        },
        "external": {
            "balanceReceived(address)": "1291",
            "receiveFunds()": "infinite",
            "withdrawFunds(address,uint64)": "infinite"
        }
    }
}