{
    "contractName": "Functions",
    "abi": [
        {
            "inputs": [],
            "stateMutability": "nonpayable",
            "type": "constructor"
        },
        {
            "inputs": [
                {
                    "internalType": "address",
                    "name": "",
                    "type": "address"
                }
            ],
            "name": "balanceReceived",
            "outputs": [
                {
                    "internalType": "uint64",
                    "name": "",
                    "type": "uint64"
                }
            ],
            "stateMutability": "view",
            "type": "function"
        },
        {
            "inputs": [
                {
                    "internalType": "uint256",
                    "name": "_amountToWei",
                    "type": "uint256"
                }
            ],
            "name": "convertWeiToEther",
            "outputs": [
                {
                    "internalType": "uint256",
                    "name": "",
                    "type": "uint256"
                }
            ],
            "stateMutability": "pure",
            "type": "function"
        },
        {
            "inputs": [],
            "name": "destroyContract",
            "outputs": [],
            "stateMutability": "nonpayable",
            "type": "function"
        },
        {
            "inputs": [],
            "name": "getOwner",
            "outputs": [
                {
                    "internalType": "address",
                    "name": "",
                    "type": "address"
                }
            ],
            "stateMutability": "view",
            "type": "function"
        },
        {
            "inputs": [],
            "name": "receiveFunds",
            "outputs": [],
            "stateMutability": "payable",
            "type": "function"
        },
        {
            "inputs": [
                {
                    "internalType": "address payable",
                    "name": "_to",
                    "type": "address"
                },
                {
                    "internalType": "uint64",
                    "name": "_amount",
                    "type": "uint64"
                }
            ],
            "name": "withdrawFunds",
            "outputs": [],
            "stateMutability": "nonpayable",
            "type": "function"
        },
        {
            "stateMutability": "payable",
            "type": "receive"
        }
    ],
    "bytecode": "608060405234801561001057600080fd5b50600180546001600160a01b03191633179055610552806100326000396000f3fe6080604052600436106100585760003560e01c80625c33e11461006c578063092a5cce14610074578063395a606314610089578063893d20e8146100bf578063d18a42e1146100e1578063faf7fc061461010e57610067565b366100675761006561012e565b005b600080fd5b61006561012e565b34801561008057600080fd5b506100656101c4565b34801561009557600080fd5b506100a96100a43660046103db565b610205565b6040516100b6919061045e565b60405180910390f35b3480156100cb57600080fd5b506100d461021f565b6040516100b691906103f3565b3480156100ed57600080fd5b506101016100fc366004610375565b61022e565b6040516100b69190610467565b34801561011a57600080fd5b50610065610129366004610398565b610249565b336000908152602081905260409020546001600160401b0316610151348261047b565b6001600160401b0316101561017657634e487b7160e01b600052600160045260246000fd5b336000908152602081905260408120805434929061019e9084906001600160401b031661047b565b92506101000a8154816001600160401b0302191690836001600160401b03160217905550565b6001546001600160a01b031633146101f75760405162461bcd60e51b81526004016101ee90610407565b60405180910390fd5b6001546001600160a01b0316ff5b6000610219670de0b6b3a7640000836104a6565b92915050565b6001546001600160a01b031690565b6000602081905290815260409020546001600160401b031681565b336000908152602081905260409020546001600160401b0390811690821611156102855760405162461bcd60e51b81526004016101ee90610436565b336000908152602081905260409020546102a99082906001600160401b03166104c6565b336000908152602081905260409020546001600160401b03918216911610156102e257634e487b7160e01b600052600160045260246000fd5b336000908152602081905260408120805483929061030a9084906001600160401b03166104c6565b92506101000a8154816001600160401b0302191690836001600160401b03160217905550816001600160a01b03166108fc826001600160401b03169081150290604051600060405180830381858888f19350505050158015610370573d6000803e3d6000fd5b505050565b600060208284031215610386578081fd5b813561039181610504565b9392505050565b600080604083850312156103aa578081fd5b82356103b581610504565b915060208301356001600160401b03811681146103d0578182fd5b809150509250929050565b6000602082840312156103ec578081fd5b5035919050565b6001600160a01b0391909116815260200190565b6020808252601590820152742cb7ba9030b932903737ba103a34329037bbb732b960591b604082015260600190565b6020808252600e908201526d09cdee840cadcdeeaced0408aa8960931b604082015260600190565b90815260200190565b6001600160401b0391909116815260200190565b60006001600160401b0380831681851680830382111561049d5761049d6104ee565b01949350505050565b6000826104c157634e487b7160e01b81526012600452602481fd5b500490565b60006001600160401b03838116908316818110156104e6576104e66104ee565b039392505050565b634e487b7160e01b600052601160045260246000fd5b6001600160a01b038116811461051957600080fd5b5056fea2646970667358221220dd6be2889e7d2beb4390d95a7ed17b90da96d4f7d114ad00c3cba46c0fda08b964736f6c63430008010033",
    "sourcePath": "/Users/vasilis/Projects/Solidity/udemy/contracts/07_functions.sol",
    "compiler": {
        "name": "solc",
        "version": "0.8.1+commit.df193b15"
    },
    "functionHashes": {
        "balanceReceived(address)": "d18a42e1",
        "convertWeiToEther(uint256)": "395a6063",
        "destroyContract()": "092a5cce",
        "getOwner()": "893d20e8",
        "receiveFunds()": "005c33e1",
        "withdrawFunds(address,uint64)": "faf7fc06"
    },
    "gasEstimates": {
        "creation": {
            "codeDepositCost": "272400",
            "executionCost": "21147",
            "totalCost": "293547"
        },
        "external": {
            "balanceReceived(address)": "1357",
            "convertWeiToEther(uint256)": "394",
            "destroyContract()": "31796",
            "getOwner()": "1114",
            "receiveFunds()": "infinite",
            "withdrawFunds(address,uint64)": "infinite"
        }
    }
}