{
    "contractName": "InheritenceModifier",
    "abi": [
        {
            "inputs": [],
            "stateMutability": "nonpayable",
            "type": "constructor"
        },
        {
            "inputs": [],
            "name": "burnToken",
            "outputs": [],
            "stateMutability": "nonpayable",
            "type": "function"
        },
        {
            "inputs": [],
            "name": "createNewToken",
            "outputs": [],
            "stateMutability": "nonpayable",
            "type": "function"
        },
        {
            "inputs": [],
            "name": "prchaseToken",
            "outputs": [],
            "stateMutability": "payable",
            "type": "function"
        },
        {
            "inputs": [
                {
                    "internalType": "address",
                    "name": "_to",
                    "type": "address"
                },
                {
                    "internalType": "uint256",
                    "name": "_amount",
                    "type": "uint256"
                }
            ],
            "name": "sendTokens",
            "outputs": [],
            "stateMutability": "nonpayable",
            "type": "function"
        },
        {
            "inputs": [
                {
                    "internalType": "address",
                    "name": "",
                    "type": "address"
                }
            ],
            "name": "tokenBalance",
            "outputs": [
                {
                    "internalType": "uint256",
                    "name": "",
                    "type": "uint256"
                }
            ],
            "stateMutability": "view",
            "type": "function"
        }
    ],
    "bytecode": "6080604052670de0b6b3a764000060025534801561001c57600080fd5b50600080546001600160a01b03191633178082556001600160a01b031681526001602052604090206064905561055e806100576000396000f3fe60806040526004361061004a5760003560e01c806305ab421d1461004f578063754fc38c14610071578063800be3e514610086578063eedc966a1461008e578063faa0a264146100c4575b600080fd5b34801561005b57600080fd5b5061006f61006a36600461038b565b6100d9565b005b34801561007d57600080fd5b5061006f6101db565b61006f610230565b34801561009a57600080fd5b506100ae6100a936600461036a565b6102ee565b6040516100bb9190610469565b60405180910390f35b3480156100d057600080fd5b5061006f610300565b336000908152600160205260409020548111156101115760405162461bcd60e51b815260040161010890610432565b60405180910390fd5b6001600160a01b0382166000908152600160205260409020546101348282610472565b101561015057634e487b7160e01b600052600160045260246000fd5b3360009081526001602052604090205461016a82826104c9565b111561018657634e487b7160e01b600052600160045260246000fd5b33600090815260016020526040812080548392906101a59084906104c9565b90915550506001600160a01b038216600090815260016020526040812080548392906101d2908490610472565b90915550505050565b6000546001600160a01b031633146102055760405162461bcd60e51b8152600401610108906103eb565b600080546001600160a01b03168152600160205260408120805491610229836104f7565b9190505550565b600254600080546001600160a01b03168152600160205260408120549091349161025a91906104aa565b610264919061048a565b116102815760405162461bcd60e51b8152600401610108906103b4565b60025461028e903461048a565b600080546001600160a01b0316815260016020526040812080549091906102b69084906104c9565b90915550506002546102c8903461048a565b33600090815260016020526040812080549091906102e7908490610472565b9091555050565b60016020526000908152604090205481565b6000546001600160a01b0316331461032a5760405162461bcd60e51b8152600401610108906103eb565b600080546001600160a01b03168152600160205260408120805491610229836104e0565b80356001600160a01b038116811461036557600080fd5b919050565b60006020828403121561037b578081fd5b6103848261034e565b9392505050565b6000806040838503121561039d578081fd5b6103a68361034e565b946020939093013593505050565b60208082526018908201527f4e6f7420656e6f75676820746f6b656e7320746f206275790000000000000000604082015260600190565b60208082526027908201527f596f75206d75737420626520746865206f776e6572206f66207468697320636f604082015266373a3930b1ba1760c91b606082015260800190565b60208082526019908201527f4e6f7420656e6f75676820746f6b656e7320746f2073656e6400000000000000604082015260600190565b90815260200190565b6000821982111561048557610485610512565b500190565b6000826104a557634e487b7160e01b81526012600452602481fd5b500490565b60008160001904831182151516156104c4576104c4610512565b500290565b6000828210156104db576104db610512565b500390565b6000816104ef576104ef610512565b506000190190565b600060001982141561050b5761050b610512565b5060010190565b634e487b7160e01b600052601160045260246000fdfea26469706673582212203409e2eaba3cd45ea7ae3f4bfb9447601fcfa25d9e8819ee10da562bb2927f2564736f6c63430008010033",
    "sourcePath": "/Users/vasilis/Projects/Solidity/udemy/contracts/08_Imheritence_modifiers_imports.sol",
    "compiler": {
        "name": "solc",
        "version": "0.8.1+commit.df193b15"
    },
    "functionHashes": {
        "burnToken()": "faa0a264",
        "createNewToken()": "754fc38c",
        "prchaseToken()": "800be3e5",
        "sendTokens(address,uint256)": "05ab421d",
        "tokenBalance(address)": "eedc966a"
    },
    "gasEstimates": {
        "creation": {
            "codeDepositCost": "274800",
            "executionCost": "61243",
            "totalCost": "336043"
        },
        "external": {
            "burnToken()": "22814",
            "createNewToken()": "22757",
            "prchaseToken()": "infinite",
            "sendTokens(address,uint256)": "infinite",
            "tokenBalance(address)": "1296"
        }
    }
}