{
    "contractName": "Libraries",
    "abi": [
        {
            "inputs": [],
            "stateMutability": "nonpayable",
            "type": "constructor"
        },
        {
            "inputs": [
                {
                    "internalType": "address",
                    "name": "_to",
                    "type": "address"
                },
                {
                    "internalType": "uint256",
                    "name": "_amount",
                    "type": "uint256"
                }
            ],
            "name": "sendToken",
            "outputs": [
                {
                    "internalType": "bool",
                    "name": "",
                    "type": "bool"
                }
            ],
            "stateMutability": "nonpayable",
            "type": "function"
        },
        {
            "inputs": [
                {
                    "internalType": "address",
                    "name": "",
                    "type": "address"
                }
            ],
            "name": "tokenBalance",
            "outputs": [
                {
                    "internalType": "uint256",
                    "name": "",
                    "type": "uint256"
                }
            ],
            "stateMutability": "view",
            "type": "function"
        }
    ],
    "bytecode": "608060405234801561001057600080fd5b50336000908152602081905260409020600a905561020b806100336000396000f3fe608060405234801561001057600080fd5b50600436106100365760003560e01c8063412664ae1461003b578063eedc966a14610064575b600080fd5b61004e610049366004610153565b610084565b60405161005b919061017c565b60405180910390f35b610077610072366004610139565b6100ec565b60405161005b9190610187565b3360009081526020819052604081205461009e90836100fe565b33600090815260208190526040808220929092556001600160a01b038516815220546100ca9083610111565b6001600160a01b03841660009081526020819052604090205550600192915050565b60006020819052908152604090205481565b600061010a82846101a8565b9392505050565b600061010a8284610190565b80356001600160a01b038116811461013457600080fd5b919050565b60006020828403121561014a578081fd5b61010a8261011d565b60008060408385031215610165578081fd5b61016e8361011d565b946020939093013593505050565b901515815260200190565b90815260200190565b600082198211156101a3576101a36101bf565b500190565b6000828210156101ba576101ba6101bf565b500390565b634e487b7160e01b600052601160045260246000fdfea264697066735822122086a36342755b10627afdded0527b99968df98b0d1788fefc27eb540df0f4fce564736f6c63430008010033",
    "sourcePath": "/Users/vasilis/Projects/Solidity/udemy/contracts/Libraries.sol",
    "compiler": {
        "name": "solc",
        "version": "0.8.1+commit.df193b15"
    },
    "functionHashes": {
        "sendToken(address,uint256)": "412664ae",
        "tokenBalance(address)": "eedc966a"
    },
    "gasEstimates": {
        "creation": {
            "codeDepositCost": "104600",
            "executionCost": "20233",
            "totalCost": "124833"
        },
        "external": {
            "sendToken(address,uint256)": "infinite",
            "tokenBalance(address)": "1255"
        }
    }
}