{
    "contractName": "Mappings",
    "abi": [
        {
            "inputs": [
                {
                    "internalType": "address",
                    "name": "",
                    "type": "address"
                }
            ],
            "name": "myAddressMapping",
            "outputs": [
                {
                    "internalType": "bool",
                    "name": "",
                    "type": "bool"
                }
            ],
            "stateMutability": "view",
            "type": "function"
        },
        {
            "inputs": [
                {
                    "internalType": "uint256",
                    "name": "",
                    "type": "uint256"
                }
            ],
            "name": "myMappings",
            "outputs": [
                {
                    "internalType": "bool",
                    "name": "",
                    "type": "bool"
                }
            ],
            "stateMutability": "view",
            "type": "function"
        },
        {
            "inputs": [],
            "name": "setMyAddressToTrue",
            "outputs": [],
            "stateMutability": "nonpayable",
            "type": "function"
        },
        {
            "inputs": [
                {
                    "internalType": "uint256",
                    "name": "_key",
                    "type": "uint256"
                }
            ],
            "name": "setValue",
            "outputs": [],
            "stateMutability": "nonpayable",
            "type": "function"
        }
    ],
    "bytecode": "608060405234801561001057600080fd5b50610195806100206000396000f3fe608060405234801561001057600080fd5b506004361061004c5760003560e01c80635524107714610051578063634899ce1461006657806374005e7b1461006e578063b92ba3b814610097575b600080fd5b61006461005f36600461013c565b6100aa565b005b6100646100c5565b61008161007c36600461013c565b6100e4565b60405161008e9190610154565b60405180910390f35b6100816100a536600461010e565b6100f9565b6000908152602081905260409020805460ff19166001179055565b336000908152600160208190526040909120805460ff19169091179055565b60006020819052908152604090205460ff1681565b60016020526000908152604090205460ff1681565b60006020828403121561011f578081fd5b81356001600160a01b0381168114610135578182fd5b9392505050565b60006020828403121561014d578081fd5b5035919050565b90151581526020019056fea264697066735822122021665b709f120b14f49d3b0bd3f554f738088f8dc436e667eb08215fd911a3d264736f6c63430008010033",
    "sourcePath": "/Users/vasilis/Projects/Solidity/udemy/contracts/04_Mappings.sol",
    "compiler": {
        "name": "solc",
        "version": "0.8.1+commit.df193b15"
    },
    "functionHashes": {
        "myAddressMapping(address)": "b92ba3b8",
        "myMappings(uint256)": "74005e7b",
        "setMyAddressToTrue()": "634899ce",
        "setValue(uint256)": "55241077"
    },
    "gasEstimates": {
        "creation": {
            "codeDepositCost": "81000",
            "executionCost": "129",
            "totalCost": "81129"
        },
        "external": {
            "myAddressMapping(address)": "1273",
            "myMappings(uint256)": "1208",
            "setMyAddressToTrue()": "21048",
            "setValue(uint256)": "21092"
        }
    }
}