{
    "contractName": "StartStopUpdateExample",
    "abi": [
        {
            "inputs": [],
            "stateMutability": "nonpayable",
            "type": "constructor"
        },
        {
            "inputs": [
                {
                    "internalType": "address payable",
                    "name": "_to",
                    "type": "address"
                }
            ],
            "name": "destroySmartContract",
            "outputs": [],
            "stateMutability": "nonpayable",
            "type": "function"
        },
        {
            "inputs": [],
            "name": "owner",
            "outputs": [
                {
                    "internalType": "address",
                    "name": "",
                    "type": "address"
                }
            ],
            "stateMutability": "view",
            "type": "function"
        },
        {
            "inputs": [],
            "name": "paused",
            "outputs": [
                {
                    "internalType": "bool",
                    "name": "",
                    "type": "bool"
                }
            ],
            "stateMutability": "view",
            "type": "function"
        },
        {
            "inputs": [
                {
                    "internalType": "address payable",
                    "name": "_to",
                    "type": "address"
                }
            ],
            "name": "sendAllMoneyTo",
            "outputs": [],
            "stateMutability": "nonpayable",
            "type": "function"
        },
        {
            "inputs": [],
            "name": "sendMoney",
            "outputs": [],
            "stateMutability": "payable",
            "type": "function"
        },
        {
            "inputs": [
                {
                    "internalType": "bool",
                    "name": "_paused",
                    "type": "bool"
                }
            ],
            "name": "setPaused",
            "outputs": [],
            "stateMutability": "nonpayable",
            "type": "function"
        }
    ],
    "bytecode": "608060405234801561001057600080fd5b50600080546001600160a01b031916331790556103c4806100326000396000f3fe6080604052600436106100555760003560e01c806316c38b3c1461005a57806339df43ff1461007c5780635c975abb1461009c5780638da5cb5b146100c7578063bfcc6412146100e9578063cbedbf5a14610109575b600080fd5b34801561006657600080fd5b5061007a610075366004610274565b610111565b005b34801561008857600080fd5b5061007a610097366004610246565b610162565b3480156100a857600080fd5b506100b1610198565b6040516100be91906102a8565b60405180910390f35b3480156100d357600080fd5b506100dc6101a8565b6040516100be9190610294565b3480156100f557600080fd5b5061007a610104366004610246565b6101b7565b61007a610244565b6000546001600160a01b031633146101445760405162461bcd60e51b815260040161013b906102f9565b60405180910390fd5b60008054911515600160a01b0260ff60a01b19909216919091179055565b6000546001600160a01b0316331461018c5760405162461bcd60e51b815260040161013b90610328565b806001600160a01b0316ff5b600054600160a01b900460ff1681565b6000546001600160a01b031681565b6000546001600160a01b031633146101e15760405162461bcd60e51b815260040161013b906102b3565b600054600160a01b900460ff161561020b5760405162461bcd60e51b815260040161013b90610349565b6040516001600160a01b038216904780156108fc02916000818181858888f19350505050158015610240573d6000803e3d6000fd5b5050565b565b600060208284031215610257578081fd5b81356001600160a01b038116811461026d578182fd5b9392505050565b600060208284031215610285578081fd5b8135801515811461026d578182fd5b6001600160a01b0391909116815260200190565b901515815260200190565b60208082526026908201527f596f7520617265206e6f7420617574686f726973656420746f206f706572617460408201526565206865726560d01b606082015260800190565b6020808252601590820152742cb7ba9030b932903737ba103a34329037bbb732b960591b604082015260600190565b6020808252600790820152664e4f504521212160c81b604082015260600190565b60208082526025908201527f436f6e74726163742069732070617573656420666f72207468652074696d65206040820152646265696e6760d81b60608201526080019056fea2646970667358221220572a27a34e0f8779dd8fc46619f63ce43b588de4f30b2de2257f069d6ba53d3d64736f6c63430008010033",
    "sourcePath": "/Users/vasilis/Projects/Solidity/udemy/contracts/03_Start_stop_delete.sol",
    "compiler": {
        "name": "solc",
        "version": "0.8.1+commit.df193b15"
    },
    "functionHashes": {
        "destroySmartContract(address)": "39df43ff",
        "owner()": "8da5cb5b",
        "paused()": "5c975abb",
        "sendAllMoneyTo(address)": "bfcc6412",
        "sendMoney()": "cbedbf5a",
        "setPaused(bool)": "16c38b3c"
    },
    "gasEstimates": {
        "creation": {
            "codeDepositCost": "192800",
            "executionCost": "21073",
            "totalCost": "213873"
        },
        "external": {
            "destroySmartContract(address)": "31119",
            "owner()": "1114",
            "paused()": "1079",
            "sendAllMoneyTo(address)": "infinite",
            "sendMoney()": "208",
            "setPaused(bool)": "21938"
        }
    }
}