{
    "contractName": "Structs",
    "abi": [
        {
            "inputs": [
                {
                    "internalType": "address",
                    "name": "",
                    "type": "address"
                }
            ],
            "name": "balanceReceived",
            "outputs": [
                {
                    "internalType": "uint256",
                    "name": "totalBalance",
                    "type": "uint256"
                },
                {
                    "internalType": "uint256",
                    "name": "paymentsIndexKey",
                    "type": "uint256"
                }
            ],
            "stateMutability": "view",
            "type": "function"
        },
        {
            "inputs": [],
            "name": "getBalance",
            "outputs": [
                {
                    "internalType": "uint256",
                    "name": "",
                    "type": "uint256"
                }
            ],
            "stateMutability": "view",
            "type": "function"
        },
        {
            "inputs": [],
            "name": "sendFunds",
            "outputs": [],
            "stateMutability": "payable",
            "type": "function"
        },
        {
            "inputs": [
                {
                    "internalType": "address payable",
                    "name": "_to",
                    "type": "address"
                }
            ],
            "name": "withdrawAllFunds",
            "outputs": [],
            "stateMutability": "nonpayable",
            "type": "function"
        },
        {
            "inputs": [
                {
                    "internalType": "address payable",
                    "name": "_to",
                    "type": "address"
                },
                {
                    "internalType": "uint256",
                    "name": "_amount",
                    "type": "uint256"
                }
            ],
            "name": "withdrawFunds",
            "outputs": [],
            "stateMutability": "nonpayable",
            "type": "function"
        }
    ],
    "bytecode": "608060405234801561001057600080fd5b506103d6806100206000396000f3fe60806040526004361061004a5760003560e01c806312065fe01461004f57806332dee40b1461007a5780638d68cf591461009c578063c1075329146100a4578063d18a42e1146100c4575b600080fd5b34801561005b57600080fd5b506100646100f2565b6040516100719190610311565b60405180910390f35b34801561008657600080fd5b5061009a610095366004610278565b6100f6565b005b61009a610147565b3480156100b057600080fd5b5061009a6100bf36600461029b565b6101cd565b3480156100d057600080fd5b506100e46100df366004610278565b61025f565b60405161007192919061031a565b4790565b33600090815260208190526040808220805490839055905190916001600160a01b0384169183156108fc0291849190818181858888f19350505050158015610142573d6000803e3d6000fd5b505050565b3360009081526020819052604081208054349290610166908490610328565b909155505060408051808201825234815242602080830191825233600081815280835285812060018082018054808552600290930186529783208751815595519501949094559081529081905283549293919291906101c483610357565b91905055505050565b336000908152602081905260409020548111156102055760405162461bcd60e51b81526004016101fc906102c6565b60405180910390fd5b3360009081526020819052604081208054839290610224908490610340565b90915550506040516001600160a01b0383169082156108fc029083906000818181858888f19350505050158015610142573d6000803e3d6000fd5b6000602081905290815260409020805460019091015482565b600060208284031215610289578081fd5b813561029481610388565b9392505050565b600080604083850312156102ad578081fd5b82356102b881610388565b946020939093013593505050565b6020808252602b908201527f596f7520646f6e2774206861766520656e6f7567682066756e647320696e207960408201526a1bdd5c881858d8dbdd5b9d60aa1b606082015260800190565b90815260200190565b918252602082015260400190565b6000821982111561033b5761033b610372565b500190565b60008282101561035257610352610372565b500390565b600060001982141561036b5761036b610372565b5060010190565b634e487b7160e01b600052601160045260246000fd5b6001600160a01b038116811461039d57600080fd5b5056fea2646970667358221220d83791504d52f3b6b435dea57be41c94d77a834febc890e425a1dc7f325c895164736f6c63430008010033",
    "sourcePath": "/Users/vasilis/Projects/Solidity/udemy/contracts/05_maps_and_structs.sol",
    "compiler": {
        "name": "solc",
        "version": "0.8.1+commit.df193b15"
    },
    "functionHashes": {
        "balanceReceived(address)": "d18a42e1",
        "getBalance()": "12065fe0",
        "sendFunds()": "8d68cf59",
        "withdrawAllFunds(address)": "32dee40b",
        "withdrawFunds(address,uint256)": "c1075329"
    },
    "gasEstimates": {
        "creation": {
            "codeDepositCost": "196400",
            "executionCost": "238",
            "totalCost": "196638"
        },
        "external": {
            "balanceReceived(address)": "2148",
            "getBalance()": "208",
            "sendFunds()": "83091",
            "withdrawAllFunds(address)": "infinite",
            "withdrawFunds(address,uint256)": "infinite"
        }
    }
}