{
    "contractName": "TransferFunds",
    "abi": [
        {
            "inputs": [],
            "name": "balanceReceived",
            "outputs": [
                {
                    "internalType": "uint256",
                    "name": "",
                    "type": "uint256"
                }
            ],
            "stateMutability": "view",
            "type": "function"
        },
        {
            "inputs": [],
            "name": "getBalance",
            "outputs": [
                {
                    "internalType": "uint256",
                    "name": "",
                    "type": "uint256"
                }
            ],
            "stateMutability": "view",
            "type": "function"
        },
        {
            "inputs": [],
            "name": "receiveMoney",
            "outputs": [],
            "stateMutability": "payable",
            "type": "function"
        },
        {
            "inputs": [
                {
                    "internalType": "address payable",
                    "name": "_to",
                    "type": "address"
                }
            ],
            "name": "sendMoneyTo",
            "outputs": [],
            "stateMutability": "nonpayable",
            "type": "function"
        },
        {
            "inputs": [],
            "name": "withdrawMoney",
            "outputs": [],
            "stateMutability": "nonpayable",
            "type": "function"
        }
    ],
    "bytecode": "608060405234801561001057600080fd5b5061028e806100206000396000f3fe60806040526004361061004a5760003560e01c806312065fe01461004f57806352a90c421461007a5780636d26ec181461008f57806392b123f814610099578063ac446002146100b9575b600080fd5b34801561005b57600080fd5b506100646100ce565b604051610071919061022b565b60405180910390f35b34801561008657600080fd5b506100646100d2565b6100976100d8565b005b3480156100a557600080fd5b506100976100b43660046101e5565b6100f0565b3480156100c557600080fd5b5061009761019a565b4790565b60005481565b346000808282546100e99190610234565b9091555050565b806001600160a01b03166108fc306001600160a01b03166312065fe06040518163ffffffff1660e01b815260040160206040518083038186803b15801561013657600080fd5b505afa15801561014a573d6000803e3d6000fd5b505050506040513d601f19601f8201168201806040525081019061016e9190610213565b6040518115909202916000818181858888f19350505050158015610196573d6000803e3d6000fd5b5050565b6000339050806001600160a01b03166108fc306001600160a01b03166312065fe06040518163ffffffff1660e01b815260040160206040518083038186803b15801561013657600080fd5b6000602082840312156101f6578081fd5b81356001600160a01b038116811461020c578182fd5b9392505050565b600060208284031215610224578081fd5b5051919050565b90815260200190565b6000821982111561025357634e487b7160e01b81526011600452602481fd5b50019056fea26469706673582212203c323e682ce65806100a5d61ebdeb3984c349b0894f3a82841a2d0808a01d2ab64736f6c63430008010033",
    "sourcePath": "/Users/vasilis/Projects/Solidity/udemy/contracts/02_send_and_receive_eth.sol",
    "compiler": {
        "name": "solc",
        "version": "0.8.1+commit.df193b15"
    },
    "functionHashes": {
        "balanceReceived()": "52a90c42",
        "getBalance()": "12065fe0",
        "receiveMoney()": "6d26ec18",
        "sendMoneyTo(address)": "92b123f8",
        "withdrawMoney()": "ac446002"
    },
    "gasEstimates": {
        "creation": {
            "codeDepositCost": "130800",
            "executionCost": "177",
            "totalCost": "130977"
        },
        "external": {
            "balanceReceived()": "1028",
            "getBalance()": "208",
            "receiveMoney()": "21036",
            "sendMoneyTo(address)": "infinite",
            "withdrawMoney()": "infinite"
        }
    }
}