{
    "contractName": "Variables",
    "abi": [
        {
            "inputs": [],
            "name": "decrement",
            "outputs": [],
            "stateMutability": "nonpayable",
            "type": "function"
        },
        {
            "inputs": [],
            "name": "getBalance",
            "outputs": [
                {
                    "internalType": "uint256",
                    "name": "",
                    "type": "uint256"
                }
            ],
            "stateMutability": "view",
            "type": "function"
        },
        {
            "inputs": [],
            "name": "increment",
            "outputs": [],
            "stateMutability": "nonpayable",
            "type": "function"
        },
        {
            "inputs": [],
            "name": "myAdress",
            "outputs": [
                {
                    "internalType": "address",
                    "name": "",
                    "type": "address"
                }
            ],
            "stateMutability": "view",
            "type": "function"
        },
        {
            "inputs": [],
            "name": "myBool",
            "outputs": [
                {
                    "internalType": "bool",
                    "name": "",
                    "type": "bool"
                }
            ],
            "stateMutability": "view",
            "type": "function"
        },
        {
            "inputs": [],
            "name": "myString",
            "outputs": [
                {
                    "internalType": "string",
                    "name": "",
                    "type": "string"
                }
            ],
            "stateMutability": "view",
            "type": "function"
        },
        {
            "inputs": [],
            "name": "myUInt",
            "outputs": [
                {
                    "internalType": "uint256",
                    "name": "",
                    "type": "uint256"
                }
            ],
            "stateMutability": "view",
            "type": "function"
        },
        {
            "inputs": [],
            "name": "myUInt8",
            "outputs": [
                {
                    "internalType": "uint8",
                    "name": "",
                    "type": "uint8"
                }
            ],
            "stateMutability": "view",
            "type": "function"
        },
        {
            "inputs": [
                {
                    "internalType": "address",
                    "name": "_adsress",
                    "type": "address"
                }
            ],
            "name": "setAdress",
            "outputs": [],
            "stateMutability": "nonpayable",
            "type": "function"
        },
        {
            "inputs": [
                {
                    "internalType": "uint256",
                    "name": "_myUInt",
                    "type": "uint256"
                }
            ],
            "name": "setMyUInt",
            "outputs": [],
            "stateMutability": "nonpayable",
            "type": "function"
        },
        {
            "inputs": [
                {
                    "internalType": "string",
                    "name": "_myString",
                    "type": "string"
                }
            ],
            "name": "setString",
            "outputs": [],
            "stateMutability": "nonpayable",
            "type": "function"
        }
    ],
    "bytecode": "60c0604052600b60808190526a12195b1b1bc815dbdc9b1960aa1b60a090815261002c916002919061003f565b5034801561003957600080fd5b50610113565b82805461004b906100d8565b90600052602060002090601f01602090048101928261006d57600085556100b3565b82601f1061008657805160ff19168380011785556100b3565b828001600101855582156100b3579182015b828111156100b3578251825591602001919060010190610098565b506100bf9291506100c3565b5090565b5b808211156100bf57600081556001016100c4565b6002810460018216806100ec57607f821691505b6020821081141561010d57634e487b7160e01b600052602260045260246000fd5b50919050565b6105b8806101226000396000f3fe608060405234801561001057600080fd5b50600436106100a95760003560e01c80636ca14bfd116100715780636ca14bfd146101135780636deecdbe146101285780637fcaf6661461013d57806396b57def14610150578063d09de08a14610158578063e7b167fc14610160576100a9565b80630e807d6e146100ae57806312065fe0146100c35780632baeceb7146100e15780633c925533146100e9578063492bfa18146100fe575b600080fd5b6100c16100bc366004610365565b610173565b005b6100cb610195565b6040516100d891906104c7565b60405180910390f35b6100c16101a5565b6100f16101da565b6040516100d891906104d0565b6101066101ea565b6040516100d89190610474565b61011b610278565b6040516100d89190610455565b610130610287565b6040516100d89190610469565b6100c161014b366004610393565b610290565b6100cb6102a7565b6100c16102ad565b6100c161016e36600461043d565b6102c7565b600380546001600160a01b0319166001600160a01b0392909216919091179055565b6003546001600160a01b03163190565b60038054600160a01b900460ff169060146101bf836104de565b91906101000a81548160ff021916908360ff16021790555050565b600354600160a01b900460ff1681565b600280546101f7906104fb565b80601f0160208091040260200160405190810160405280929190818152602001828054610223906104fb565b80156102705780601f1061024557610100808354040283529160200191610270565b820191906000526020600020905b81548152906001019060200180831161025357829003601f168201915b505050505081565b6003546001600160a01b031681565b60015460ff1681565b80516102a39060029060208401906102cc565b5050565b60005481565b60038054600160a01b900460ff169060146101bf83610536565b600055565b8280546102d8906104fb565b90600052602060002090601f0160209004810192826102fa5760008555610340565b82601f1061031357805160ff1916838001178555610340565b82800160010185558215610340579182015b82811115610340578251825591602001919060010190610325565b5061034c929150610350565b5090565b5b8082111561034c5760008155600101610351565b600060208284031215610376578081fd5b81356001600160a01b038116811461038c578182fd5b9392505050565b6000602082840312156103a4578081fd5b813567ffffffffffffffff808211156103bb578283fd5b818401915084601f8301126103ce578283fd5b8135818111156103e0576103e061056c565b604051601f8201601f19908116603f011681019083821181831017156104085761040861056c565b81604052828152876020848701011115610420578586fd5b826020860160208301379182016020019490945295945050505050565b60006020828403121561044e578081fd5b5035919050565b6001600160a01b0391909116815260200190565b901515815260200190565b6000602080835283518082850152825b818110156104a057858101830151858201604001528201610484565b818111156104b15783604083870101525b50601f01601f1916929092016040019392505050565b90815260200190565b60ff91909116815260200190565b600060ff8216806104f1576104f1610556565b6000190192915050565b60028104600182168061050f57607f821691505b6020821081141561053057634e487b7160e01b600052602260045260246000fd5b50919050565b600060ff821660ff81141561054d5761054d610556565b60010192915050565b634e487b7160e01b600052601160045260246000fd5b634e487b7160e01b600052604160045260246000fdfea26469706673582212207c262c2f7bb2e4909ca9b9a99b9a054c9e45e3fad460b9e2bdf0d96b916e4d7e64736f6c63430008010033",
    "sourcePath": "/Users/vasilis/Projects/Solidity/udemy/contracts/01_variables_and_functions.sol",
    "compiler": {
        "name": "solc",
        "version": "0.8.1+commit.df193b15"
    },
    "functionHashes": {
        "decrement()": "2baeceb7",
        "getBalance()": "12065fe0",
        "increment()": "d09de08a",
        "myAdress()": "6ca14bfd",
        "myBool()": "6deecdbe",
        "myString()": "492bfa18",
        "myUInt()": "96b57def",
        "myUInt8()": "3c925533",
        "setAdress(address)": "0e807d6e",
        "setMyUInt(uint256)": "e7b167fc",
        "setString(string)": "7fcaf666"
    },
    "gasEstimates": {
        "creation": {
            "codeDepositCost": "292800",
            "executionCost": "infinite",
            "totalCost": "infinite"
        },
        "external": {
            "decrement()": "22015",
            "getBalance()": "1769",
            "increment()": "22064",
            "myAdress()": "1070",
            "myBool()": "1062",
            "myString()": "infinite",
            "myUInt()": "1094",
            "myUInt8()": "1130",
            "setAdress(address)": "21137",
            "setMyUInt(uint256)": "20334",
            "setString(string)": "infinite"
        }
    }
}